import 'package:stackwallet/models/paymint/transactions_model.dart';
// import 'package:stackwallet/models/transactions_model.dart';

final transactionData = TransactionData.fromMap({
  "4c119685401e28982283e644c57d84fde6aab83324012e35c9b49e6efd99b49b":
      tx1, //received 5.00
  "82da70c660daf4d42abd403795d047918c4021ff1d706b61790cda01a1c5ae5a":
      tx2, //sent 2.7
  "351a94874379a5444c8891162472acf66de538a1abc647d4753f3e1eb5ec66f9":
      tx3, //received 1.63
  "7b34e60cc37306f866667deb67b14096f4ea2add941fd6e2238a639000642b82":
      tx4, //sent 0.428
});

final tx1 = Transaction(
  txid: "4c119685401e28982283e644c57d84fde6aab83324012e35c9b49e6efd99b49b",
  confirmedStatus: true,
  confirmations: 34484,
  txType: "Received",
  amount: 500000000,
  fees: 226000,
  height: 4286283,
  address: "DQgjXUpXqG21923UTCaSmpKmUYBY5SfqGv",
  timestamp: 1656516380,
  worthNow: "0.00",
  worthAtBlockTimestamp: "0.0",
  inputSize: 1,
  outputSize: 2,
  inputs: [
    Input(
      txid: "9cd994199f9ee58c823a03bab24da87c25e0157cb42c226e191aadadbb96e452",
      vout: 0,
    ),
  ],
  outputs: [
    Output(
      scriptpubkeyAddress: "DQgjXUpXqG21923UTCaSmpKmUYBY5SfqGv",
      value: 500000000,
    ),
    Output(
      scriptpubkeyAddress: "DJQLDdijfm1VpyBcFzFQNUg5gTbQ4K4D4Z",
      value: 1931192000,
    )
  ],
);

final tx2 = Transaction(
  txid: "82da70c660daf4d42abd403795d047918c4021ff1d706b61790cda01a1c5ae5a",
  confirmedStatus: false,
  confirmations: 0,
  txType: "Sent",
  amount: 270000000,
  fees: 226000,
  height: 4286295,
  address: "DRH56X5vNp7wAD6513kDtnssniVvsGZp3Q",
  timestamp: 1656516657,
  worthNow: "0.00",
  worthAtBlockTimestamp: "0.0",
  inputSize: 1,
  outputSize: 2,
  inputs: [
    Input(
      txid: "4c119685401e28982283e644c57d84fde6aab83324012e35c9b49e6efd99b49b",
      vout: 0,
    ),
  ],
  outputs: [
    Output(
      scriptpubkeyAddress: "DRH56X5vNp7wAD6513kDtnssniVvsGZp3Q",
      value: 270000000,
    ),
    Output(
      scriptpubkeyAddress: "DMMu7mNieEvmLFYjoGsskSpkT4nhHbDpC7",
      value: 229773000,
    ),
  ],
);

final tx3 = Transaction(
  txid: "351a94874379a5444c8891162472acf66de538a1abc647d4753f3e1eb5ec66f9",
  confirmedStatus: false,
  confirmations: 0,
  txType: "Received",
  amount: 163000000,
  fees: 670000,
  height: 4286305,
  address: "DCg9heovAZuCGGNGiVv4AaDrvogtwkttMi",
  timestamp: 1656517439,
  worthNow: "0.00",
  worthAtBlockTimestamp: "0.0",
  inputSize: 4,
  outputSize: 2,
  inputs: [
    Input(
      txid: "1b9b33000583585ad35864ba2046ace44214377ac76ba86f81acd08cf7c92b50",
      vout: 0,
    ),
    Input(
      txid: "d0c451513bee7d96cb88824d9d720e6b5b90073721b4985b439687f894c3989c",
      vout: 0,
    ),
    Input(
      txid: "a4b6bd97a4b01b4305d0cf02e9bac6b7c37cda2f8e9dfe291ce4170b810ed469",
      vout: 0,
    ),
    Input(
      txid: "7a4298755ca320a722997591f9418ca57705d7934ee721f7248cf14d648be6fc",
      vout: 0,
    ),
  ],
  outputs: [
    Output(
      scriptpubkeyAddress: "DCg9heovAZuCGGNGiVv4AaDrvogtwkttMi",
      value: 163000000,
    ),
    Output(
      scriptpubkeyAddress: "DHFLNAuHL83Vx1FVeJUsks6SRLyj8bFnv4",
      value: 103730000,
    ),
  ],
);

final tx4 = Transaction(
  txid: "7b34e60cc37306f866667deb67b14096f4ea2add941fd6e2238a639000642b82",
  confirmedStatus: true,
  confirmations: 36763,
  txType: "Sent",
  amount: 42800000,
  fees: 375000,
  height: 4286316,
  address: "DRH56X5vNp7wAD6513kDtnssniVvsGZp3Q",
  timestamp: 1656518129,
  worthNow: "0.00",
  worthAtBlockTimestamp: "0.0",
  inputSize: 1,
  outputSize: 2,
  inputs: [
    Input(
      txid: "82da70c660daf4d42abd403795d047918c4021ff1d706b61790cda01a1c5ae5a",
      vout: 1,
    ),
  ],
  outputs: [
    Output(
      scriptpubkeyAddress: "DRH56X5vNp7wAD6513kDtnssniVvsGZp3Q",
      value: 42800000,
    ),
    Output(
      scriptpubkeyAddress: "D85hppNbFXCDrzRHJJYoXwazVQmNiWYDVV",
      value: 186747000,
    ),
  ],
);

final tx1Raw = {
  "txid": "4c119685401e28982283e644c57d84fde6aab83324012e35c9b49e6efd99b49b",
  "hash": "9d08b423c3c5e556f311d7529980d8b607f33709e41e296a4cc6b5775a66af79",
  "version": 1,
  "size": 225,
  "vsize": 225,
  "weight": 804,
  "locktime": 4286281,
  "vin": [
    {
      "txid":
          "9cd994199f9ee58c823a03bab24da87c25e0157cb42c226e191aadadbb96e452",
      "vout": 1,
      "scriptSig": {
        "asm":
            "304402204f197c402abfec282610e2fb0495ac9d88aeaf0c26f3015fc1f5b3c0f10937e402201335a716b07c51406a6b8096593cbaafe0530f6cedd625c9defefeb5bd9e843801 0347a54345c7305f59cb598ca62050a7b09798314ca9224bd53116ec2a5f3f233b",
        "hex":
            "47304402204f197c402abfec282610e2fb0495ac9d88aeaf0c26f3015fc1f5b3c0f10937e402201335a716b07c51406a6b8096593cbaafe0530f6cedd625c9defefeb5bd9e843801210347a54345c7305f59cb598ca62050a7b09798314ca9224bd53116ec2a5f3f233b"
      },
      "txinwitness": [""],
      "sequence": 4294967295
    }
  ],
  "vout": [
    {
      "value": 5.00000,
      "n": 0,
      "scriptPubKey": {
        "asm":
            "OP_DUP OP_HASH160 d66628d8971d3a45130826cab45e28c2a69d1a21 OP_EQUALVERIFY OP_CHECKSIG",
        "hex": "76a914d66628d8971d3a45130826cab45e28c2a69d1a2188ac",
        "address": "DQgjXUpXqG21923UTCaSmpKmUYBY5SfqGv",
        "type": "pubkeyhash"
      }
    },
    {
      "value": 19.31192000,
      "n": 1,
      "scriptPubKey": {
        "asm":
            "OP_DUP OP_HASH160 917b4b0d9805f0e1d7d77a6a9348c55544d99b72 OP_EQUALVERIFY OP_CHECKSIG",
        "hex": "76a914917b4b0d9805f0e1d7d77a6a9348c55544d99b7288ac",
        "address": "DJQLDdijfm1VpyBcFzFQNUg5gTbQ4K4D4Z",
        "type": "pubkeyhash"
      }
    }
  ],
  "hex":
      "010000000152e496bbadad1a196e222cb47c15e0257ca84db2ba033a828ce59e9f1994d99c000000006a47304402204f197c402abfec282610e2fb0495ac9d88aeaf0c26f3015fc1f5b3c0f10937e402201335a716b07c51406a6b8096593cbaafe0530f6cedd625c9defefeb5bd9e843801210347a54345c7305f59cb598ca62050a7b09798314ca9224bd53116ec2a5f3f233bfeffffff020065cd1d000000001976a914d66628d8971d3a45130826cab45e28c2a69d1a2188acc0a61b73000000001976a914917b4b0d9805f0e1d7d77a6a9348c55544d99b7288ac49674100",
  "blockhash":
      "9d08b423c3c5e556f311d7529980d8b607f33709e41e296a4cc6b5775a66af79",
  "confirmations": 34484,
  "time": 1656516380,
  "blocktime": 1656516380
};

final tx2Raw = {
  "txid": "82da70c660daf4d42abd403795d047918c4021ff1d706b61790cda01a1c5ae5a",
  "hash": "35a74440f794f94f8b2b9f64a1fb2253a83b402bfbe0d9e849371137608372e5",
  "version": 1,
  "size": 225,
  "vsize": 225,
  "weight": 984,
  "locktime": 0,
  "vin": [
    {
      "txid":
          "4c119685401e28982283e644c57d84fde6aab83324012e35c9b49e6efd99b49b",
      "vout": 0,
      "scriptSig": {
        "asm":
            "30440220426d5829b05abe0c92564389336c128b467a84f6e0910b59eb9752a9c482bd60022039ace7a8a8574924ee83d3c94964a75ef8cd40e4936e127443f9c7f0bf64f26401 02dec097405ea77335c30fdcb05620e900a9f31695673519b043684740b56ed0e0",
        "hex":
            "4730440220426d5829b05abe0c92564389336c128b467a84f6e0910b59eb9752a9c482bd60022039ace7a8a8574924ee83d3c94964a75ef8cd40e4936e127443f9c7f0bf64f264012102dec097405ea77335c30fdcb05620e900a9f31695673519b043684740b56ed0e0"
      },
      "txinwitness": [""],
      "sequence": 4294967295
    }
  ],
  "vout": [
    {
      "value": 2.70000000,
      "n": 0,
      "scriptPubKey": {
        "asm":
            "OP_DUP OP_HASH160 dce4a35ef453c96b205f90fa9f7a9c7b0067efb0 OP_EQUALVERIFY OP_CHECKSIG",
        "hex": "76a914dce4a35ef453c96b205f90fa9f7a9c7b0067efb088ac",
        "address": "DRH56X5vNp7wAD6513kDtnssniVvsGZp3Q",
        "type": "pubkeyhash"
      }
    },
    {
      "value": 2.29773000,
      "n": 1,
      "scriptPubKey": {
        "asm":
            "OP_DUP OP_HASH160 b1ede29c79ae04b4c2a1bf2bdb83114b2453b668 OP_EQUALVERIFY OP_CHECKSIG",
        "hex": "76a914b1ede29c79ae04b4c2a1bf2bdb83114b2453b66888ac",
        "address": "DMMu7mNieEvmLFYjoGsskSpkT4nhHbDpC7",
        "type": "pubkeyhash"
      }
    }
  ],
  "hex":
      "01000000019bb499fd6e9eb4c9352e012433b8aae6fd847dc544e6832298281e408596114c000000006a4730440220426d5829b05abe0c92564389336c128b467a84f6e0910b59eb9752a9c482bd60022039ace7a8a8574924ee83d3c94964a75ef8cd40e4936e127443f9c7f0bf64f264012102dec097405ea77335c30fdcb05620e900a9f31695673519b043684740b56ed0e0ffffffff0280df1710000000001976a914dce4a35ef453c96b205f90fa9f7a9c7b0067efb088acc80eb20d000000001976a914b1ede29c79ae04b4c2a1bf2bdb83114b2453b66888ac00000000",
  "blockhash":
      "35a74440f794f94f8b2b9f64a1fb2253a83b402bfbe0d9e849371137608372e5",
  "confirmations": 0,
  "time": 1656516657,
  "blocktime": 1656516657
};

final tx3Raw = {
  "txid": "351a94874379a5444c8891162472acf66de538a1abc647d4753f3e1eb5ec66f9",
  "hash": "c9af67e812f870a137def7fcd2e8d4de2fa3cc62cbc4b7881a1e8cea4325c461",
  "version": 1,
  "size": 667,
  "vsize": 667,
  "weight": 880,
  "locktime": 4286304,
  "vin": [
    {
      "txid":
          "1b9b33000583585ad35864ba2046ace44214377ac76ba86f81acd08cf7c92b50",
      "vout": 0,
      "scriptSig": {
        "asm":
            "30440220229887ee769ac0ab9ab547a3cbdd4dd51a1079db445871ec8b3305bcb8082e4402207b66ae316805ed562f90c8229fcdf3f1719b15386b8768eedd6760728518196c01 0268bb592e7ac968fdc69fd7221757aa016769d072aa3b651627293a8bcb16a438",
        "hex":
            "4730440220229887ee769ac0ab9ab547a3cbdd4dd51a1079db445871ec8b3305bcb8082e4402207b66ae316805ed562f90c8229fcdf3f1719b15386b8768eedd6760728518196c01210268bb592e7ac968fdc69fd7221757aa016769d072aa3b651627293a8bcb16a438"
      },
      "txinwitness": [""],
      "sequence": 4294967295
    },
    {
      "txid":
          "d0c451513bee7d96cb88824d9d720e6b5b90073721b4985b439687f894c3989c",
      "vout": 0,
      "scriptSig": {
        "asm":
            "3044022066e670062472aa4a3c7850ce8f2a609aeeee2ff3c5f3b737f45dead42dccb18602205b82583cb13206c7a3a277c89f824e9ead6f624201308fc17578e75054b47a7b01 0268bb592e7ac968fdc69fd7221757aa016769d072aa3b651627293a8bcb16a438",
        "hex":
            "473044022066e670062472aa4a3c7850ce8f2a609aeeee2ff3c5f3b737f45dead42dccb18602205b82583cb13206c7a3a277c89f824e9ead6f624201308fc17578e75054b47a7b01210268bb592e7ac968fdc69fd7221757aa016769d072aa3b651627293a8bcb16a438"
      },
      "txinwitness": [""],
      "sequence": 4294967295
    },
    {
      "txid":
          "a4b6bd97a4b01b4305d0cf02e9bac6b7c37cda2f8e9dfe291ce4170b810ed469",
      "vout": 1,
      "scriptSig": {
        "asm":
            "3045022100dbb1067b88302c8869d8008d92c0de8ac87b60510c225499a2f2aa67ac0aaf8e0220328c0389680038fdaa6852dcaf8b910c4bd46aa98e6718680dad175e3f038ea001 0268bb592e7ac968fdc69fd7221757aa016769d072aa3b651627293a8bcb16a438",
        "hex":
            "483045022100dbb1067b88302c8869d8008d92c0de8ac87b60510c225499a2f2aa67ac0aaf8e0220328c0389680038fdaa6852dcaf8b910c4bd46aa98e6718680dad175e3f038ea001210268bb592e7ac968fdc69fd7221757aa016769d072aa3b651627293a8bcb16a438"
      },
      "sequence": 4294967295
    },
    {
      "txid":
          "7a4298755ca320a722997591f9418ca57705d7934ee721f7248cf14d648be6fc",
      "vout": 1,
      "scriptSig": {
        "asm":
            "3044022061a8d5cfffa107f71b4e4c3fbbd5cc4caefca68394d8fd4913a90badd5ba17240220636ac1ade5f4e9f705333a446c6c82e94168c523b244d346fee9a7ce1df5ec4901 0268bb592e7ac968fdc69fd7221757aa016769d072aa3b651627293a8bcb16a438",
        "hex":
            "473044022061a8d5cfffa107f71b4e4c3fbbd5cc4caefca68394d8fd4913a90badd5ba17240220636ac1ade5f4e9f705333a446c6c82e94168c523b244d346fee9a7ce1df5ec4901210268bb592e7ac968fdc69fd7221757aa016769d072aa3b651627293a8bcb16a438"
      },
      "sequence": 4294967295
    }
  ],
  "vout": [
    {
      "value": 1.63000000,
      "n": 0,
      "scriptPubKey": {
        "asm":
            "OP_DUP OP_HASH160 52a86a2f1e51910fb3b6cc6d15d4b0bcb371534f OP_EQUALVERIFY OP_CHECKSIG",
        "hex": "76a91452a86a2f1e51910fb3b6cc6d15d4b0bcb371534f88ac",
        "address": "DCg9heovAZuCGGNGiVv4AaDrvogtwkttMi",
        "type": "pubkeyhash"
      }
    },
    {
      "value": 1.03730000,
      "n": 1,
      "scriptPubKey": {
        "asm":
            "OP_DUP OP_HASH160 84cf8beed30b429cb281b08456279fc006ee2af5 OP_EQUALVERIFY OP_CHECKSIG",
        "hex": "76a91484cf8beed30b429cb281b08456279fc006ee2af588ac",
        "address": "DHFLNAuHL83Vx1FVeJUsks6SRLyj8bFnv4",
        "type": "pubkeyhash"
      }
    }
  ],
  "hex":
      "0100000004502bc9f78cd0ac816fa86bc77a371442e4ac4620ba6458d35a58830500339b1b000000006a4730440220229887ee769ac0ab9ab547a3cbdd4dd51a1079db445871ec8b3305bcb8082e4402207b66ae316805ed562f90c8229fcdf3f1719b15386b8768eedd6760728518196c01210268bb592e7ac968fdc69fd7221757aa016769d072aa3b651627293a8bcb16a438feffffff9c98c394f88796435b98b4213707905b6b0e729d4d8288cb967dee3b5151c4d0000000006a473044022066e670062472aa4a3c7850ce8f2a609aeeee2ff3c5f3b737f45dead42dccb18602205b82583cb13206c7a3a277c89f824e9ead6f624201308fc17578e75054b47a7b01210268bb592e7ac968fdc69fd7221757aa016769d072aa3b651627293a8bcb16a438feffffff69d40e810b17e41c29fe9d8e2fda7cc3b7c6bae902cfd005431bb0a497bdb6a4000000006b483045022100dbb1067b88302c8869d8008d92c0de8ac87b60510c225499a2f2aa67ac0aaf8e0220328c0389680038fdaa6852dcaf8b910c4bd46aa98e6718680dad175e3f038ea001210268bb592e7ac968fdc69fd7221757aa016769d072aa3b651627293a8bcb16a438fefffffffce68b644df18c24f721e74e93d70577a58c41f991759922a720a35c7598427a000000006a473044022061a8d5cfffa107f71b4e4c3fbbd5cc4caefca68394d8fd4913a90badd5ba17240220636ac1ade5f4e9f705333a446c6c82e94168c523b244d346fee9a7ce1df5ec4901210268bb592e7ac968fdc69fd7221757aa016769d072aa3b651627293a8bcb16a438feffffff02c02eb709000000001976a91452a86a2f1e51910fb3b6cc6d15d4b0bcb371534f88ac50cb2e06000000001976a91484cf8beed30b429cb281b08456279fc006ee2af588ac60674100",
  "blockhash":
      "c9af67e812f870a137def7fcd2e8d4de2fa3cc62cbc4b7881a1e8cea4325c461",
  "confirmations": 0,
  "time": 1656517439,
  "blocktime": 1656517439
};

final tx4Raw = {
  "txid": "7b34e60cc37306f866667deb67b14096f4ea2add941fd6e2238a639000642b82",
  "hash": "b5d2d1b65fe465a4e9efb6353683641193a563d8b6c011abf527a46ba225c845",
  "version": 1,
  "size": 226,
  "vsize": 226,
  "weight": 437,
  "locktime": 0,
  "vin": [
    {
      "txid":
          "82da70c660daf4d42abd403795d047918c4021ff1d706b61790cda01a1c5ae5a",
      "vout": 1,
      "scriptSig": {
        "asm":
            "3045022100e5c67a715a93b93c71393f216b7003cc47bf788fb07a25c71a93f2f51a6b60e5022050a00fde09821ce4a8665f983891a1260c5fa341f86808b99905abf759ae9f6601 02279c6c1c594097db47e15f12b99f2d7ec20582bb1fd02696acbe2f6c9d0e0ebf",
        "hex":
            "483045022100e5c67a715a93b93c71393f216b7003cc47bf788fb07a25c71a93f2f51a6b60e5022050a00fde09821ce4a8665f983891a1260c5fa341f86808b99905abf759ae9f66012102279c6c1c594097db47e15f12b99f2d7ec20582bb1fd02696acbe2f6c9d0e0ebf"
      },
      "txinwitness": [""],
      "sequence": 4294967295
    }
  ],
  "vout": [
    {
      "value": 0.42800000,
      "n": 0,
      "scriptPubKey": {
        "asm":
            "OP_DUP OP_HASH160 dce4a35ef453c96b205f90fa9f7a9c7b0067efb0 OP_EQUALVERIFY OP_CHECKSIG",
        "hex": "76a914dce4a35ef453c96b205f90fa9f7a9c7b0067efb088ac",
        "address": "DRH56X5vNp7wAD6513kDtnssniVvsGZp3Q",
        "type": "pubkeyhash"
      }
    },
    {
      "value": 1.86747000,
      "n": 1,
      "scriptPubKey": {
        "asm":
            "OP_DUP OP_HASH160 20442b1986d6a1056bc3003def50e18d3c7a9d33 OP_EQUALVERIFY OP_CHECKSIG",
        "hex": "76a91420442b1986d6a1056bc3003def50e18d3c7a9d3388ac",
        "address": "D85hppNbFXCDrzRHJJYoXwazVQmNiWYDVV",
        "type": "pubkeyhash"
      }
    }
  ],
  "hex":
      "01000000015aaec5a101da0c79616b701dff21408c9147d0953740bd2ad4f4da60c670da82010000006b483045022100e5c67a715a93b93c71393f216b7003cc47bf788fb07a25c71a93f2f51a6b60e5022050a00fde09821ce4a8665f983891a1260c5fa341f86808b99905abf759ae9f66012102279c6c1c594097db47e15f12b99f2d7ec20582bb1fd02696acbe2f6c9d0e0ebfffffffff0280138d02000000001976a914dce4a35ef453c96b205f90fa9f7a9c7b0067efb088ac7888210b000000001976a91420442b1986d6a1056bc3003def50e18d3c7a9d3388ac00000000",
  "blockhash":
      "b5d2d1b65fe465a4e9efb6353683641193a563d8b6c011abf527a46ba225c845",
  "confirmations": 36763,
  "time": 1656518129,
  "blocktime": 1656518129
};

final tx5Raw = {
  "txid": "4493caff0e1b4f248e3c6219e7f288cfdb46c32b72a77aec469098c5f7f5154e",
  "hash": "4345230c1acc4ec24180a0df11a93406ccd08c02ca65051171e655df614be389",
  "version": 1,
  "size": 668,
  "vsize": 668,
  "weight": 574,
  "locktime": 4286320,
  "vin": [
    {
      "txid":
          "42d95e47362b776f25ff2c4af571ea4eaac405031c145c1b6079905f48df5d52",
      "vout": 0,
      "scriptSig": {
        "asm":
            "3045022100acddcd47d1ea0496e5b74619c674d30234312a4747250d3d015f94d3b9c3bf4902202b3fa7fd5041d47957e2ffdf47298f0a7f0cbb0bb34f92abcf208099ed8ad15201 0268bb592e7ac968fdc69fd7221757aa016769d072aa3b651627293a8bcb16a438",
        "hex":
            "483045022100acddcd47d1ea0496e5b74619c674d30234312a4747250d3d015f94d3b9c3bf4902202b3fa7fd5041d47957e2ffdf47298f0a7f0cbb0bb34f92abcf208099ed8ad15201210268bb592e7ac968fdc69fd7221757aa016769d072aa3b651627293a8bcb16a438"
      },
      "txinwitness": [""],
      "sequence": 4294967295
    },
    {
      "txid":
          "82da70c660daf4d42abd403795d047918c4021ff1d706b61790cda01a1c5ae5a",
      "vout": 0,
      "scriptSig": {
        "asm":
            "3045022100d97cfebe7355ea3ee9fabee297b28a0a43fc5d622fcfd001510508b968617a21022060a5891b5a6a66bcaeed5a0c1091776538fb6dc116b43e6d0bdd4f4bff24378901 0268bb592e7ac968fdc69fd7221757aa016769d072aa3b651627293a8bcb16a438",
        "hex":
            "483045022100d97cfebe7355ea3ee9fabee297b28a0a43fc5d622fcfd001510508b968617a21022060a5891b5a6a66bcaeed5a0c1091776538fb6dc116b43e6d0bdd4f4bff24378901210268bb592e7ac968fdc69fd7221757aa016769d072aa3b651627293a8bcb16a438"
      },
      "txinwitness": [""],
      "sequence": 4294967295
    },
    {
      "txid":
          "c2edf283df75cc2724320b866857a82d80266a59d69ab5a7ca12033adbffa44e",
      "vout": 0,
      "scriptSig": {
        "asm":
            "304402204d7b0a515352d21c863b558c6a0ecf7e9f1eb3d44126f534936c5f3f82cc72e602200301179edd2ea54f58d1ac65759f804cdc93fbdd007b8d3d07deab7a55dc2f2301 0268bb592e7ac968fdc69fd7221757aa016769d072aa3b651627293a8bcb16a438",
        "hex":
            "47304402204d7b0a515352d21c863b558c6a0ecf7e9f1eb3d44126f534936c5f3f82cc72e602200301179edd2ea54f58d1ac65759f804cdc93fbdd007b8d3d07deab7a55dc2f2301210268bb592e7ac968fdc69fd7221757aa016769d072aa3b651627293a8bcb16a438"
      },
      "txinwitness": [""],
      "sequence": 4294967295
    },
    {
      "txid":
          "c07f740ad72c0dd759741f4c9ab4b1586a22bc16545584364ac9b3d845766271",
      "vout": 0,
      "scriptSig": {
        "asm":
            "3044022016617c35392494997b7c45df69967d8a0e5d5a9a95163045f5a8dbe164af408f022009e682e296cf24876b45788d30f41c0ee112739547569877b95b0f764d8288c201 0268bb592e7ac968fdc69fd7221757aa016769d072aa3b651627293a8bcb16a438",
        "hex":
            "473044022016617c35392494997b7c45df69967d8a0e5d5a9a95163045f5a8dbe164af408f022009e682e296cf24876b45788d30f41c0ee112739547569877b95b0f764d8288c201210268bb592e7ac968fdc69fd7221757aa016769d072aa3b651627293a8bcb16a438"
      },
      "txinwitness": [""],
      "sequence": 4294967295
    }
  ],
  "vout": [
    {
      "value": 1.12530000,
      "n": 0,
      "scriptPubKey": {
        "asm":
            "OP_DUP OP_HASH160 8af34fe435659e49643c7cf6bea2b305702d6890 OP_EQUALVERIFY OP_CHECKSIG",
        "hex": "76a9148af34fe435659e49643c7cf6bea2b305702d689088ac",
        "address": "DHooGMHASSxcfHWY7QGHwutdWMaMeqUTJU",
        "type": "pubkeyhash"
      }
    },
    {
      "value": 3.82000000,
      "n": 1,
      "scriptPubKey": {
        "asm":
            "OP_DUP OP_HASH160 880b88ce8d8fa8930f980ad7f278e1eff08710c5 OP_EQUALVERIFY OP_CHECKSIG",
        "hex": "76a914880b88ce8d8fa8930f980ad7f278e1eff08710c588ac",
        "address": "DHYSFmi7maxMofTiks2aCSiAwZXYFmexp7",
        "type": "pubkeyhash"
      }
    }
  ],
  "hex":
      "0100000004525ddf485f9079601b5c141c0305c4aa4eea71f54a2cff256f772b36475ed942000000006b483045022100acddcd47d1ea0496e5b74619c674d30234312a4747250d3d015f94d3b9c3bf4902202b3fa7fd5041d47957e2ffdf47298f0a7f0cbb0bb34f92abcf208099ed8ad15201210268bb592e7ac968fdc69fd7221757aa016769d072aa3b651627293a8bcb16a438feffffff5aaec5a101da0c79616b701dff21408c9147d0953740bd2ad4f4da60c670da82000000006b483045022100d97cfebe7355ea3ee9fabee297b28a0a43fc5d622fcfd001510508b968617a21022060a5891b5a6a66bcaeed5a0c1091776538fb6dc116b43e6d0bdd4f4bff24378901210268bb592e7ac968fdc69fd7221757aa016769d072aa3b651627293a8bcb16a438feffffff4ea4ffdb3a0312caa7b59ad6596a26802da85768860b322427cc75df83f2edc2000000006a47304402204d7b0a515352d21c863b558c6a0ecf7e9f1eb3d44126f534936c5f3f82cc72e602200301179edd2ea54f58d1ac65759f804cdc93fbdd007b8d3d07deab7a55dc2f2301210268bb592e7ac968fdc69fd7221757aa016769d072aa3b651627293a8bcb16a438feffffff71627645d8b3c94a3684555416bc226a58b1b49a4c1f7459d70d2cd70a747fc0000000006a473044022016617c35392494997b7c45df69967d8a0e5d5a9a95163045f5a8dbe164af408f022009e682e296cf24876b45788d30f41c0ee112739547569877b95b0f764d8288c201210268bb592e7ac968fdc69fd7221757aa016769d072aa3b651627293a8bcb16a438feffffff025012b506000000001976a9148af34fe435659e49643c7cf6bea2b305702d689088ac80dbc416000000001976a914880b88ce8d8fa8930f980ad7f278e1eff08710c588ac70674100",
  "blockhash":
      "4345230c1acc4ec24180a0df11a93406ccd08c02ca65051171e655df614be389",
  "confirmations": 36813,
  "time": 1656518480,
  "blocktime": 1656518480
};

final tx6Raw = {
  "txid": "e095cbe5531d174c3fc5c9c39a0e6ba2769489cdabdc17b35b2e3a33a3c2fc61",
  "hash": "fbe4e8f4fba5c8bd76709d48a262d48c43ac3f3619c0ed68295f8219e5a5b485",
  "version": 1,
  "size": 372,
  "vsize": 372,
  "weight": 562,
  "locktime": 0,
  "vin": [
    {
      "txid":
          "351a94874379a5444c8891162472acf66de538a1abc647d4753f3e1eb5ec66f9",
      "vout": 0,
      "scriptSig": {
        "asm":
            "3044022036b57b3c0a666b7ee06d42d8bc75439ba69481ed5b8d17d8e2e2d5856c3fbb600220435f45c7b7187e69e652cf772516caad45efcd2ef441455210943cf781a1123b01 027977c29b3159e02714d9ee429c7d580b37f6b46c80828a690487c45bf05b8dd2",
        "hex":
            "473044022036b57b3c0a666b7ee06d42d8bc75439ba69481ed5b8d17d8e2e2d5856c3fbb600220435f45c7b7187e69e652cf772516caad45efcd2ef441455210943cf781a1123b0121027977c29b3159e02714d9ee429c7d580b37f6b46c80828a690487c45bf05b8dd2"
      },
      "txinwitness": [""],
      "sequence": 4294967295
    },
    {
      "txid":
          "7b34e60cc37306f866667deb67b14096f4ea2add941fd6e2238a639000642b82",
      "vout": 1,
      "scriptSig": {
        "asm":
            "3044022012fdd06197c48bde59a6357bdd7a89334e94d63360ca7b836ee8b88b9f8f449402206323a23cc62fc5fb26c97119451c61c1344b9ad3cb61e99c3adb9ccb6791cad201 02f816cd315c388a15786c4af25841569b2b70a79abb5c6f423872f15893dad2d6",
        "hex":
            "473044022012fdd06197c48bde59a6357bdd7a89334e94d63360ca7b836ee8b88b9f8f449402206323a23cc62fc5fb26c97119451c61c1344b9ad3cb61e99c3adb9ccb6791cad2012102f816cd315c388a15786c4af25841569b2b70a79abb5c6f423872f15893dad2d6"
      },
      "txinwitness": [""],
      "sequence": 4294967295
    }
  ],
  "vout": [
    {
      "value": 2.50000000,
      "n": 0,
      "scriptPubKey": {
        "asm":
            "OP_DUP OP_HASH160 dce4a35ef453c96b205f90fa9f7a9c7b0067efb0 OP_EQUALVERIFY OP_CHECKSIG",
        "hex": "76a914dce4a35ef453c96b205f90fa9f7a9c7b0067efb088ac",
        "address": "DRH56X5vNp7wAD6513kDtnssniVvsGZp3Q",
        "type": "pubkeyhash"
      }
    },
    {
      "value": 0.99373000,
      "n": 1,
      "scriptPubKey": {
        "asm":
            "OP_DUP OP_HASH160 c8c8c92aaee51b44132b32954a3a95eea8984936 OP_EQUALVERIFY OP_CHECKSIG",
        "hex": "76a914c8c8c92aaee51b44132b32954a3a95eea898493688ac",
        "address": "DPSkDU3GBKoSydESSwJscX8zUJbrs8goTq",
        "type": "pubkeyhash"
      }
    }
  ],
  "hex":
      "0100000002f966ecb51e3e3f75d447c6aba138e56df6ac72241691884c44a5794387941a35000000006a473044022036b57b3c0a666b7ee06d42d8bc75439ba69481ed5b8d17d8e2e2d5856c3fbb600220435f45c7b7187e69e652cf772516caad45efcd2ef441455210943cf781a1123b0121027977c29b3159e02714d9ee429c7d580b37f6b46c80828a690487c45bf05b8dd2ffffffff822b640090638a23e2d61f94dd2aeaf49640b167eb7d6666f80673c30ce6347b010000006a473044022012fdd06197c48bde59a6357bdd7a89334e94d63360ca7b836ee8b88b9f8f449402206323a23cc62fc5fb26c97119451c61c1344b9ad3cb61e99c3adb9ccb6791cad2012102f816cd315c388a15786c4af25841569b2b70a79abb5c6f423872f15893dad2d6ffffffff0280b2e60e000000001976a914dce4a35ef453c96b205f90fa9f7a9c7b0067efb088acc84fec05000000001976a914c8c8c92aaee51b44132b32954a3a95eea898493688ac00000000",
  "blockhash":
      "fbe4e8f4fba5c8bd76709d48a262d48c43ac3f3619c0ed68295f8219e5a5b485",
  "confirmations": 36750,
  "time": 1656523343,
  "blocktime": 1656523343
};

final tx7Raw = {
  "txid": "d3054c63fe8cfafcbf67064ec66b9fbe1ac293860b5d6ffaddd39546658b72de",
  "hash": "f1016ce666f9cdaa0005141b4ed42a55e9dadea72ed90914ac5f477f8b4e2998",
  "version": 1,
  "size": 225,
  "vsize": 225,
  "weight": 561,
  "locktime": 0,
  "vin": [
    {
      "txid":
          "4493caff0e1b4f248e3c6219e7f288cfdb46c32b72a77aec469098c5f7f5154e",
      "vout": 1,
      "scriptSig": {
        "asm":
            "304402207732f485ddbd81835f5a3b3fec202ddf688f0a2133afd9d67b13fb3c4b39d47c02205d35cce488f73310948cfe9a4b9d8d26893b644e6233a205faf9f9cab95cce3f01 025d80748365def86bd36bfa7943df08a0b234fb2ab676e7e55d37f7a1ddf24f52",
        "hex":
            "47304402207732f485ddbd81835f5a3b3fec202ddf688f0a2133afd9d67b13fb3c4b39d47c02205d35cce488f73310948cfe9a4b9d8d26893b644e6233a205faf9f9cab95cce3f0121025d80748365def86bd36bfa7943df08a0b234fb2ab676e7e55d37f7a1ddf24f52"
      },
      "txinwitness": [""],
      "sequence": 4294967295
    }
  ],
  "vout": [
    {
      "value": 0.64700000,
      "n": 0,
      "scriptPubKey": {
        "asm":
            "OP_DUP OP_HASH160 dce4a35ef453c96b205f90fa9f7a9c7b0067efb0 OP_EQUALVERIFY OP_CHECKSIG",
        "hex": "76a914dce4a35ef453c96b205f90fa9f7a9c7b0067efb088ac",
        "address": "DRH56X5vNp7wAD6513kDtnssniVvsGZp3Q",
        "type": "pubkeyhash"
      }
    },
    {
      "value": 3.17074000,
      "n": 1,
      "scriptPubKey": {
        "asm":
            "OP_DUP OP_HASH160 f69e598f8229f2816daf7fd6c434c6b19cd8a2d8 OP_EQUALVERIFY OP_CHECKSIG",
        "hex": "76a914f69e598f8229f2816daf7fd6c434c6b19cd8a2d888ac",
        "address": "DTd6Tni93LkVTNy6W9wXpteskwL6GF2Sni",
        "type": "pubkeyhash"
      }
    }
  ],
  "hex":
      "01000000014e15f5f7c5989046ec7aa7722bc346dbcf88f2e719623c8e244f1b0effca9344010000006a47304402207732f485ddbd81835f5a3b3fec202ddf688f0a2133afd9d67b13fb3c4b39d47c02205d35cce488f73310948cfe9a4b9d8d26893b644e6233a205faf9f9cab95cce3f0121025d80748365def86bd36bfa7943df08a0b234fb2ab676e7e55d37f7a1ddf24f52ffffffff02603edb03000000001976a914dce4a35ef453c96b205f90fa9f7a9c7b0067efb088ac502ae612000000001976a914f69e598f8229f2816daf7fd6c434c6b19cd8a2d888ac00000000",
  "blockhash":
      "f1016ce666f9cdaa0005141b4ed42a55e9dadea72ed90914ac5f477f8b4e2998",
  "confirmations": 36764,
  "time": 1656523391,
  "blocktime": 1656523391
};

final tx8Raw = {
  "txid": "a70c6f0690fa84712dc6b3d20ee13862fe015a08cf2dc8949c4300d49c3bdeb5",
  "hash": "24ec0bb8955ae069d33d0d18cb16a6361fe8bb3d0b594bebdd4e990746655ff6",
  "version": 1,
  "size": 373,
  "vsize": 373,
  "weight": 565,
  "locktime": 4286428,
  "vin": [
    {
      "txid":
          "f44d5e46aad4b84acbb9e0798bf4d16b413de4bf8786017e3f53baed8c6348bc",
      "vout": 0,
      "scriptSig": {
        "asm":
            "3045022100de57f17131a9a20ca9089972bfb3dbf7c80a6e5cb3da2770aae0e07b014de5d7022058412bc2b1e2ba24504d31f4c4b19643ff401d4db1ec6e33fe81276c971285a201 03429f738e98c87f34978656c78e574d536d8ae0a123e29ab47bdc6d0860ead3c9",
        "hex":
            "483045022100de57f17131a9a20ca9089972bfb3dbf7c80a6e5cb3da2770aae0e07b014de5d7022058412bc2b1e2ba24504d31f4c4b19643ff401d4db1ec6e33fe81276c971285a2012103429f738e98c87f34978656c78e574d536d8ae0a123e29ab47bdc6d0860ead3c9"
      },
      "txinwitness": [""],
      "sequence": 4294967295
    },
    {
      "txid":
          "351a94874379a5444c8891162472acf66de538a1abc647d4753f3e1eb5ec66f9",
      "vout": 1,
      "scriptSig": {
        "asm":
            "3044022022b3babd26ebdaedfeca06769bd25824388234ab1ea6838bda0f217b9043dde902202ec81c129053a07a9bda1de9dfe6cc387c64eef3ab4bd4a824d329082822c7a101 03e4f92e00fabb99b5fb288e5157de2a20c6599913843aa358b4ab8706ab095899",
        "hex":
            "473044022022b3babd26ebdaedfeca06769bd25824388234ab1ea6838bda0f217b9043dde902202ec81c129053a07a9bda1de9dfe6cc387c64eef3ab4bd4a824d329082822c7a1012103e4f92e00fabb99b5fb288e5157de2a20c6599913843aa358b4ab8706ab095899"
      },
      "txinwitness": [""],
      "sequence": 4294967295
    }
  ],
  "vout": [
    {
      "value": 1.00000000,
      "n": 0,
      "scriptPubKey": {
        "asm":
            "OP_DUP OP_HASH160 95257dc108354cb2e92a31e97ed13ba25ba59d38 OP_EQUALVERIFY OP_CHECKSIG",
        "hex": "76a91495257dc108354cb2e92a31e97ed13ba25ba59d3888ac",
        "address": "DJji8n2zJgaWzZ21vxxVKaRs1BTfqf8cGv",
        "type": "pubkeyhash"
      }
    },
    {
      "value": 1.06072000,
      "n": 1,
      "scriptPubKey": {
        "asm":
            "OP_DUP OP_HASH160 6e72ab3926043f7f6051e6abee76a616e7beac8e OP_EQUALVERIFY OP_CHECKSIG",
        "hex": "76a9146e72ab3926043f7f6051e6abee76a616e7beac8e88ac",
        "address": "DFD6Eh1AAWLyjsn9joQTBdwds54niZijjs",
        "type": "pubkeyhash"
      }
    }
  ],
  "hex":
      "0100000002bc48638cedba533f7e018687bfe43d416bd1f48b79e0b9cb4ab8d4aa465e4df4000000006b483045022100de57f17131a9a20ca9089972bfb3dbf7c80a6e5cb3da2770aae0e07b014de5d7022058412bc2b1e2ba24504d31f4c4b19643ff401d4db1ec6e33fe81276c971285a2012103429f738e98c87f34978656c78e574d536d8ae0a123e29ab47bdc6d0860ead3c9fefffffff966ecb51e3e3f75d447c6aba138e56df6ac72241691884c44a5794387941a35010000006a473044022022b3babd26ebdaedfeca06769bd25824388234ab1ea6838bda0f217b9043dde902202ec81c129053a07a9bda1de9dfe6cc387c64eef3ab4bd4a824d329082822c7a1012103e4f92e00fabb99b5fb288e5157de2a20c6599913843aa358b4ab8706ab095899feffffff0200e1f505000000001976a91495257dc108354cb2e92a31e97ed13ba25ba59d3888acc0875206000000001976a9146e72ab3926043f7f6051e6abee76a616e7beac8e88acdc674100",
  "blockhash":
      "24ec0bb8955ae069d33d0d18cb16a6361fe8bb3d0b594bebdd4e990746655ff6",
  "confirmations": 36746,
  "time": 1656525617,
  "blocktime": 1656525617
};

final tx9Raw = {
  "txid": "e9673acb3bfa928f92a7d5a545151a672e9613fdf972f3849e16094c1ed28268",
  "hash": "ae2cfcc41e6a32c9aa0a49ccc6806adaa8e765beab7aed785229513249f7f8f3",
  "version": 1,
  "size": 225,
  "vsize": 225,
  "weight": 1162,
  "locktime": 0,
  "vin": [
    {
      "txid":
          "e095cbe5531d174c3fc5c9c39a0e6ba2769489cdabdc17b35b2e3a33a3c2fc61",
      "vout": 1,
      "scriptSig": {
        "asm":
            "30440220168c3001d21886f290aec4d9dcc44cad4b1949ebf295fd0604856f2e54f4242602202c189cb410efcb132a55b003e5dc9efaeb7fbce2627f2c224167ff08ffcccef401 03f1bf8c6b76170b850eee4bbe3899cb1b88a03b8c27501d19be3649a5656fc4c9",
        "hex":
            "4730440220168c3001d21886f290aec4d9dcc44cad4b1949ebf295fd0604856f2e54f4242602202c189cb410efcb132a55b003e5dc9efaeb7fbce2627f2c224167ff08ffcccef4012103f1bf8c6b76170b850eee4bbe3899cb1b88a03b8c27501d19be3649a5656fc4c9"
      },
      "txinwitness": [""],
      "sequence": 4294967295
    }
  ],
  "vout": [
    {
      "value": 0.79000000,
      "n": 0,
      "scriptPubKey": {
        "asm":
            "OP_DUP OP_HASH160 dce4a35ef453c96b205f90fa9f7a9c7b0067efb0 OP_EQUALVERIFY OP_CHECKSIG",
        "hex": "76a914dce4a35ef453c96b205f90fa9f7a9c7b0067efb088ac",
        "address": "DRH56X5vNp7wAD6513kDtnssniVvsGZp3Q",
        "type": "pubkeyhash"
      }
    },
    {
      "value": 0.20146000,
      "n": 1,
      "scriptPubKey": {
        "asm":
            "OP_DUP OP_HASH160 6afeb7499d77a7ea00f147378731a7694adb87ab OP_EQUALVERIFY OP_CHECKSIG",
        "hex": "76a9146afeb7499d77a7ea00f147378731a7694adb87ab88ac",
        "address": "DEtqJZuQZkr6v1K32MrkVHezhgSgedML7X",
        "type": "pubkeyhash"
      }
    }
  ],
  "hex":
      "010000000161fcc2a3333a2e5bb317dcabcd899476a26b0e9ac3c9c53f4c171d53e5cb95e0010000006a4730440220168c3001d21886f290aec4d9dcc44cad4b1949ebf295fd0604856f2e54f4242602202c189cb410efcb132a55b003e5dc9efaeb7fbce2627f2c224167ff08ffcccef4012103f1bf8c6b76170b850eee4bbe3899cb1b88a03b8c27501d19be3649a5656fc4c9ffffffff02c071b504000000001976a914dce4a35ef453c96b205f90fa9f7a9c7b0067efb088ac50673301000000001976a9146afeb7499d77a7ea00f147378731a7694adb87ab88ac00000000",
  "blockhash":
      "ae2cfcc41e6a32c9aa0a49ccc6806adaa8e765beab7aed785229513249f7f8f3",
  "confirmations": 36900,
  "time": 1656525856,
  "blocktime": 1656525856
};

final tx10Raw = {
  "txid": "fa5bfa4eb581bedb28ca96a65ee77d8e81159914b70d5b7e215994221cc02a63",
  "hash": "cf30c9a9bd78a5a551e5e767c8b1f743b714e9c4f1479e06391e54de351d7d1c",
  "version": 1,
  "size": 373,
  "vsize": 373,
  "weight": 566,
  "locktime": 4286435,
  "vin": [
    {
      "txid":
          "a70c6f0690fa84712dc6b3d20ee13862fe015a08cf2dc8949c4300d49c3bdeb5",
      "vout": 0,
      "scriptSig": {
        "asm":
            "304402200e33c2ffaac2a28ff19313d3a8bff0a0874d658b79fca49d000bd9d81847da0402207363487950051de0a098103fdf8ad52ea42b7e02462c255b56c03017665a980501 02058fe73a5440573f171fda5e68c80ee4c2b1dd96f73f7cbada703abb9e3aa5f5",
        "hex":
            "47304402200e33c2ffaac2a28ff19313d3a8bff0a0874d658b79fca49d000bd9d81847da0402207363487950051de0a098103fdf8ad52ea42b7e02462c255b56c03017665a9805012102058fe73a5440573f171fda5e68c80ee4c2b1dd96f73f7cbada703abb9e3aa5f5"
      },
      "txinwitness": [""],
      "sequence": 4294967295
    },
    {
      "txid":
          "e095cbe5531d174c3fc5c9c39a0e6ba2769489cdabdc17b35b2e3a33a3c2fc61",
      "vout": 0,
      "scriptSig": {
        "asm":
            "30450221008d6dd042905d7d2f15f29b1d79ca99e6a7cfd733ff0241f0176b2a4368a1d26a0220153d3a2afbe6a9fe5b1dfb4009d7375c107fd70115ff899bdc80c52190f73d7301 0268bb592e7ac968fdc69fd7221757aa016769d072aa3b651627293a8bcb16a438",
        "hex":
            "4830450221008d6dd042905d7d2f15f29b1d79ca99e6a7cfd733ff0241f0176b2a4368a1d26a0220153d3a2afbe6a9fe5b1dfb4009d7375c107fd70115ff899bdc80c52190f73d7301210268bb592e7ac968fdc69fd7221757aa016769d072aa3b651627293a8bcb16a438"
      },
      "txinwitness": [""],
      "sequence": 4294967295
    }
  ],
  "vout": [
    {
      "value": 1.02698000,
      "n": 0,
      "scriptPubKey": {
        "asm":
            "OP_DUP OP_HASH160 0b0a48d9184495458b4d58eca4ae08b2ca273ff2 OP_EQUALVERIFY OP_CHECKSIG",
        "hex": "76a9140b0a48d9184495458b4d58eca4ae08b2ca273ff288ac",
        "address": "D69UHxCW3P5BjS3ZYd2pSXFUgRX4B47ow1",
        "type": "pubkeyhash"
      }
    },
    {
      "value": 2.53000000,
      "n": 1,
      "scriptPubKey": {
        "asm":
            "OP_DUP OP_HASH160 7449059daa3c16ed072e78dfea52c77af2fa7403 OP_EQUALVERIFY OP_CHECKSIG",
        "hex": "76a9147449059daa3c16ed072e78dfea52c77af2fa740388ac",
        "address": "DFjxQATcVTdN1ZttEdMuiv1ukemR7ypTpy",
        "type": "pubkeyhash"
      }
    }
  ],
  "hex":
      "0100000002b5de3b9cd400439c94c82dcf085a01fe6238e10ed2b3c62d7184fa90066f0ca7010000006a47304402200e33c2ffaac2a28ff19313d3a8bff0a0874d658b79fca49d000bd9d81847da0402207363487950051de0a098103fdf8ad52ea42b7e02462c255b56c03017665a9805012102058fe73a5440573f171fda5e68c80ee4c2b1dd96f73f7cbada703abb9e3aa5f5feffffff61fcc2a3333a2e5bb317dcabcd899476a26b0e9ac3c9c53f4c171d53e5cb95e0000000006b4830450221008d6dd042905d7d2f15f29b1d79ca99e6a7cfd733ff0241f0176b2a4368a1d26a0220153d3a2afbe6a9fe5b1dfb4009d7375c107fd70115ff899bdc80c52190f73d7301210268bb592e7ac968fdc69fd7221757aa016769d072aa3b651627293a8bcb16a438feffffff02100c1f06000000001976a9140b0a48d9184495458b4d58eca4ae08b2ca273ff288ac4079140f000000001976a9147449059daa3c16ed072e78dfea52c77af2fa740388ace3674100",
  "blockhash":
      "fa5bfa4eb581bedb28ca96a65ee77d8e81159914b70d5b7e215994221cc02a63",
  "confirmations": 36908,
  "time": 1656525997,
  "blocktime": 1656525997
};

final tx11Raw = {
  "txid": "694617f0000499be2f6af5f8d1ddbcf1a70ad4710c0cee6f33a13a64bba454ed",
  "hash": "b7dd89c7d74e3cbf02538583d2d31c9021b82a4221e31257fec6efdada186d2c",
  "version": 1,
  "size": 226,
  "vsize": 226,
  "weight": 561,
  "locktime": 0,
  "vin": [
    {
      "txid":
          "d3054c63fe8cfafcbf67064ec66b9fbe1ac293860b5d6ffaddd39546658b72de",
      "vout": 1,
      "scriptSig": {
        "asm":
            "3045022100c93ab9b2c819bc163014c4f1cbdc428a647ad38631eba9e781116166a352667d0220506a7c9ccdd2be48b88581f683b3d13aa036c52cc15f01f9b7769b9b6ebcb88801 03afd40d54a42b52b100bc27e986db36dd8cc3a10917400d3e00b2458737a96a30",
        "hex":
            "483045022100c93ab9b2c819bc163014c4f1cbdc428a647ad38631eba9e781116166a352667d0220506a7c9ccdd2be48b88581f683b3d13aa036c52cc15f01f9b7769b9b6ebcb888012103afd40d54a42b52b100bc27e986db36dd8cc3a10917400d3e00b2458737a96a30"
      },
      "txinwitness": [""],
      "sequence": 4294967295
    }
  ],
  "vout": [
    {
      "value": 1.20000000,
      "n": 0,
      "scriptPubKey": {
        "asm":
            "OP_DUP OP_HASH160 dce4a35ef453c96b205f90fa9f7a9c7b0067efb0 OP_EQUALVERIFY OP_CHECKSIG",
        "hex": "76a914dce4a35ef453c96b205f90fa9f7a9c7b0067efb088ac",
        "address": "DRH56X5vNp7wAD6513kDtnssniVvsGZp3Q",
        "type": "pubkeyhash"
      }
    },
    {
      "value": 1.96847000,
      "n": 1,
      "scriptPubKey": {
        "asm":
            "OP_DUP OP_HASH160 97769eea3a8b7edf0ed545a57af7922f46737834 OP_EQUALVERIFY OP_CHECKSIG",
        "hex": "76a91497769eea3a8b7edf0ed545a57af7922f4673783488ac",
        "address": "DJwxg94fFWrG4qnj3fDcQAJtg9g9QgSacM",
        "type": "pubkeyhash"
      }
    }
  ],
  "hex":
      "0100000001de728b654695d3ddfa6f5d0b8693c21abe9f6bc64e0667bffcfa8cfe634c05d3010000006b483045022100c93ab9b2c819bc163014c4f1cbdc428a647ad38631eba9e781116166a352667d0220506a7c9ccdd2be48b88581f683b3d13aa036c52cc15f01f9b7769b9b6ebcb888012103afd40d54a42b52b100bc27e986db36dd8cc3a10917400d3e00b2458737a96a30ffffffff02000e2707000000001976a914dce4a35ef453c96b205f90fa9f7a9c7b0067efb088ac98a5bb0b000000001976a91497769eea3a8b7edf0ed545a57af7922f4673783488ac00000000",
  "blockhash":
      "b7dd89c7d74e3cbf02538583d2d31c9021b82a4221e31257fec6efdada186d2c",
  "confirmations": 36940,
  "time": 1656526175,
  "blocktime": 1656526175
};
